:0300000002010CEE
:0C010C00787FE4F6D8FD758117020153DE
:10000300010E00010800071155FFC50000AAFF05F6
:0C0013000955FFEEAAFF010F00011000CC
:0E01DE001201BB850F90E51044F0F5A080F5EE
:1001BB00D2AFD2AB758921E4F587758DFD758BFDBB
:0301CB00D28E22AF
:03002300020026B2
:10002600C0E0C0F0C083C082C0D075D000C000C0A0
:1000360001C002C003C004C005C006C007309877DF
:10004600E50EB40700506C900054F828287302009F
:100056006902007202008002008902008902008B98
:100066000200AAE599B45502802080091201ECEF3E
:10007600B599028015750E008039E599B4C50280E0
:100086000980128005E599B4AA0B7411250EF8A60D
:1000960099050E801E74092508F8E6F599750E0077
:1000A6000508800F7F01120198EFB5990685150F97
:1000B600851410C2988034E50824FC601724037068
:1000C6001E1201EC8F991201EC74092508F8A60797
:1000D60005088015E4FF1201988F990508800A74B7
:1000E600092508F8E6F5990508C299D007D006D083
:1000F60005D004D003D002D001D000D0D0D082D019
:0601060083D0F0D0E032CE
:1001CE00D2AFD2A9758921758CCD758AD4D28C22E5
:0501EC00907FFFE0FF21
:0101F10022EB
:10019800E4FDBF010EFE74112EF8E62DFD0EBE061D
:1001A800F5800DE4FE74092EF8E62DFD0EBE04F56B
:0201B800AF0591
:0101BA002222
:100118000201DEE493A3F8E493A34003F68001F21E
:1001280008DFF48029E493A3F85407240CC8C333E8
:10013800C4540F4420C8834004F456800146F6DFB7
:10014800E4800B0102040810204080900003E47E44
:10015800019360BCA3FF543F30E509541FFEE493AC
:10016800A360010ECF54C025E060A840B8E493A373
:10017800FAE493A3F8E493A3C8C582C8CAC583CA9E
:10018800F0A3C8C582C8CAC583CADFE9DEE780BE56
:01001F0000E0
:00000001FF
